{
  "_format": "hh-sol-artifact-1",
  "contractName": "VoteExample",
  "sourceName": "contracts/VoteExample.sol",
  "abi": [
    {
      "anonymous": false,
      "inputs": [
        {
          "indexed": true,
          "internalType": "uint256",
          "name": "id",
          "type": "uint256"
        },
        {
          "indexed": false,
          "internalType": "uint256[]",
          "name": "votes",
          "type": "uint256[]"
        }
      ],
      "name": "Result",
      "type": "event"
    },
    {
      "inputs": [
        {
          "internalType": "uint256",
          "name": "optionsNum",
          "type": "uint256"
        }
      ],
      "name": "createVote",
      "outputs": [],
      "stateMutability": "nonpayable",
      "type": "function"
    },
    {
      "inputs": [
        {
          "internalType": "uint256",
          "name": "id",
          "type": "uint256"
        }
      ],
      "name": "tally",
      "outputs": [],
      "stateMutability": "nonpayable",
      "type": "function"
    },
    {
      "inputs": [
        {
          "internalType": "uint256",
          "name": "id",
          "type": "uint256"
        },
        {
          "internalType": "uint256",
          "name": "option",
          "type": "uint256"
        }
      ],
      "name": "vote",
      "outputs": [],
      "stateMutability": "nonpayable",
      "type": "function"
    },
    {
      "inputs": [],
      "name": "voteId",
      "outputs": [
        {
          "internalType": "uint256",
          "name": "",
          "type": "uint256"
        }
      ],
      "stateMutability": "view",
      "type": "function"
    },
    {
      "inputs": [
        {
          "internalType": "uint256",
          "name": "",
          "type": "uint256"
        }
      ],
      "name": "voteMapping",
      "outputs": [
        {
          "internalType": "bool",
          "name": "exists",
          "type": "bool"
        }
      ],
      "stateMutability": "view",
      "type": "function"
    }
  ],
  "bytecode": "0x60806040526000805534801561001457600080fd5b50610908806100246000396000f3fe608060405234801561001057600080fd5b50600436106100575760003560e01c8063b384abef1461005c578063eb9749db14610078578063ed8b6b31146100a8578063fa954aa0146100c4578063fbb39651146100e0575b600080fd5b61007660048036038101906100719190610485565b6100fe565b005b610092600480360381019061008d91906104c5565b610208565b60405161009f919061050d565b60405180910390f35b6100c260048036038101906100bd91906104c5565b610233565b005b6100de60048036038101906100d991906104c5565b6102e6565b005b6100e86103da565b6040516100f59190610537565b60405180910390f35b6001600083815260200190815260200160002060010160009054906101000a900460ff16610161576040517f08c379a0000000000000000000000000000000000000000000000000000000008152600401610158906105af565b60405180910390fd5b600160008381526020019081526020016000206000018054905081106101bc576040517f08c379a00000000000000000000000000000000000000000000000000000000081526004016101b39061061b565b60405180910390fd5b6001600083815260200190815260200160002060000181815481106101e4576101e361063b565b5b9060005260206000200160008154809291906101ff90610699565b91905055505050565b60016020528060005260406000206000915090508060010160009054906101000a900460ff16905081565b6001600082815260200190815260200160002060010160009054906101000a900460ff16610296576040517f08c379a000000000000000000000000000000000000000000000000000000000815260040161028d906105af565b60405180910390fd5b807f6f4a849271743eff49a0e301d5ca9a45e079f0d4982172b15a380baaab2c89f9600160008481526020019081526020016000206000016040516102db91906107ef565b60405180910390a250565b60008111610329576040517f08c379a000000000000000000000000000000000000000000000000000000000815260040161032090610883565b60405180910390fd5b60006001600080548152602001908152602001600020905060018160010160006101000a81548160ff0219169083151502179055508167ffffffffffffffff811115610378576103776108a3565b5b6040519080825280602002602001820160405280156103a65781602001602082028036833780820191505090505b508160000190805190602001906103be9291906103e0565b506000808154809291906103d190610699565b91905055505050565b60005481565b82805482825590600052602060002090810192821561041c579160200282015b8281111561041b578251825591602001919060010190610400565b5b509050610429919061042d565b5090565b5b8082111561044657600081600090555060010161042e565b5090565b600080fd5b6000819050919050565b6104628161044f565b811461046d57600080fd5b50565b60008135905061047f81610459565b92915050565b6000806040838503121561049c5761049b61044a565b5b60006104aa85828601610470565b92505060206104bb85828601610470565b9150509250929050565b6000602082840312156104db576104da61044a565b5b60006104e984828501610470565b91505092915050565b60008115159050919050565b610507816104f2565b82525050565b600060208201905061052260008301846104fe565b92915050565b6105318161044f565b82525050565b600060208201905061054c6000830184610528565b92915050565b600082825260208201905092915050565b7f566f746520646f6573206e6f7420657869737400000000000000000000000000600082015250565b6000610599601383610552565b91506105a482610563565b602082019050919050565b600060208201905081810360008301526105c88161058c565b9050919050565b7f496e76616c6964206f7074696f6e000000000000000000000000000000000000600082015250565b6000610605600e83610552565b9150610610826105cf565b602082019050919050565b60006020820190508181036000830152610634816105f8565b9050919050565b7f4e487b7100000000000000000000000000000000000000000000000000000000600052603260045260246000fd5b7f4e487b7100000000000000000000000000000000000000000000000000000000600052601160045260246000fd5b60006106a48261044f565b91507fffffffffffffffffffffffffffffffffffffffffffffffffffffffffffffffff82036106d6576106d561066a565b5b600182019050919050565b600081549050919050565b600082825260208201905092915050565b60008190508160005260206000209050919050565b61071b8161044f565b82525050565b600061072d8383610712565b60208301905092915050565b60008160001c9050919050565b6000819050919050565b600061076361075e83610739565b610746565b9050919050565b60006107768254610750565b9050919050565b6000600182019050919050565b6000610795826106e1565b61079f81856106ec565b93506107aa836106fd565b8060005b838110156107e2576107bf8261076a565b6107c98882610721565b97506107d48361077d565b9250506001810190506107ae565b5085935050505092915050565b60006020820190508181036000830152610809818461078a565b905092915050565b7f4e756d626572206f66206f7074696f6e73206d7573742062652067726561746560008201527f72207468616e207a65726f000000000000000000000000000000000000000000602082015250565b600061086d602b83610552565b915061087882610811565b604082019050919050565b6000602082019050818103600083015261089c81610860565b9050919050565b7f4e487b7100000000000000000000000000000000000000000000000000000000600052604160045260246000fdfea2646970667358221220ae9247b41b312699d7cee4f2b8ecbc4117bfc897845e4c25201c4452e0803c0c64736f6c63430008180033",
  "linkReferences": {},
  "deployedLinkReferences": {}
}